S00D000064726F6E652E73726563FF
S11300000C9434000C9446000C9446000C94460066
S11300100C9446000C9446000C9446000C94460044
S11300200C9446000C9446000C9446000C94460034
S11300300C9446000C9446000C9448000C94460022
S11300400C9446000C9446000C9446000C94460014
S11300500C9446000C9446000C9446000C94460004
S11300600C9446000C94460011241FBECFEFD8E038
S1130070DEBFCDBF21E0A0E0B1E001C01D92A230FF
S1130080B207E1F70E946C000C9478000C94000015
S11300901F920F920FB60F9211242F938F939F9359
S11300A08091000190910101843F21E0920730F496
S11300B00196909301018093000106C01092010102
S11300C01092000180E283B99F918F912F910F903C
S11300D00FBE0F901F9018958FEF84B9789482E02B
S11300E084BD93E095BD99EF97BD80936E00FFCFDB
S10700F0F894FFCFAE
S9030000FC
