:100000000C9434000C9451000C9451000C94510049
:100010000C9451000C9451000C9451000C9451001C
:100020000C9451000C9451000C9451000C9451000C
:100030000C9451000C9451000C9453000C945100FA
:100040000C9451000C9451000C9451000C945100EC
:100050000C9451000C9451000C9451000C945100DC
:100060000C9451000C94510011241FBECFEFD8E026
:10007000DEBFCDBF11E0A0E0B1E0E6ECF6E002C0EB
:1000800005900D92A231B107D9F721E0A2E1B1E0CC
:1000900001C01D92A233B207E1F70E948A000C94BE
:1000A00061030C9400001F920F920FB60F9211245F
:1000B0002F933F934F935F936F937F938F939F9370
:1000C000AF93BF93EF93FF9382E00E94D600FF911E
:1000D000EF91BF91AF919F918F917F916F915F91C0
:1000E0004F913F912F910F900FBE0F901F90189539
:1000F0000E94DF000E94D7028FEF0E94D40080E2AE
:100100000E941F02E2E1F1E080E081938F5F803284
:10011000E1F708950E94780002E311E081E00E9477
:1001200095028823D9F060E282E191E00E94A80262
:1001300082EE0E94B501C2E1D1E0699170E080E0F9
:1001400090E00E940A018CE091E00E94F100C0174B
:10015000D10799F780E091E00E94F10064E670E039
:1001600080E090E00E941003D9CF662369F045B18A
:1001700021E030E0B90102C0660F771F8A95E2F7EF
:10018000CB01842B85B9089545B121E030E0B90158
:1001900002C0660F771F8A95E2F7CB018095842312
:1001A00085B9089584B9089587B9089521E030E0AC
:1001B00002C0220F331F8A95E2F729B908951092E1
:1001C000C50087E68093C40088E18093C10086E083
:1001D0008093C20008958091C00085FB882780F934
:1001E00008950F931F93CF93DF93EC0188818823A9
:1001F00061F006EC10E00E94EB008823E1F38991A6
:10020000F801808388818111F6CFDF91CF911F9112
:100210000F9108958F929F92AF92BF92EF92FF92AB
:100220001F93CF93DF93CDB7DEB729970FB6F8941E
:10023000DEBF0FBECDBFFE01319629E0DF011D926A
:100240002A95E9F7611571058105910509F442C008
:1002500018E00F2EFAE08F2E912CA12CB12CF02D4E
:10026000EE24E394F12CEC0EFD1EE10EF11CA50131
:1002700094010E943F03F7016083622F732F842F44
:10028000952F1150611571058105910519F11930EE
:1002900038F320C01F5F8191882319F0193018F0BE
:1002A00022C01830B9F70F2EF6ECEF2EF12CF02DFE
:1002B0000E94EB008823E1F3E1E0F0E0EC0FFD1F8A
:1002C000E10FF11D8081805DD7018C931F5F193094
:1002D00079F709C08981811104C0FE01329610E0CE
:1002E000D9CF10E0E0CF29960FB6F894DEBF0FBE4D
:1002F000CDBFDF91CF911F91FF90EF90BF90AF9056
:100300009F908F9008958EBD0DB407FEFDCF8EB5E2
:100310000895CF93DF93C82FD62F60E082E00E942C
:10032000B50080E28C0F0E948301C82F8D2F0E94A0
:10033000830161E082E00E94B5008C2FDF91CF91B4
:100340000895CF93C82F60E082E00E94B5008C2F03
:100350000E94830180E00E948301C82F61E082E057
:100360000E94B5008C2FCF910895CF93C82F60E0E5
:1003700082E00E94B5008C2F0E948301C82F61E0AB
:1003800082E00E94B5008C2FCF910895FF920F93C9
:100390001F93CF93DF93C82F8B01D42F60E082E0AF
:1003A0000E94B50080E28C0F0E948301F82EDD23AD
:1003B00059F0C0E0F801808191E0980F90830E948D
:1003C0008301CF5FDC13F6CF61E082E00E94B500CD
:1003D0008F2DDF91CF911F910F91FF9008951F9363
:1003E000CF93DF93C82FD62F142F0E94A101112382
:1003F00049F061E070E002C0660F771FDA95E2F71E
:10040000682B09C061E070E002C0660F771FDA95C3
:10041000E2F7609568238C2F0E948901DF91CF91CC
:100420001F910895CF93C62F0E94A10190E002C0B2
:1004300095958795CA95E2F78170CF9108951F939E
:10044000CF93DF9300D000D01F92CDB7DEB7182F27
:1004500085E0E3E0F1E0DE01119601900D928A95CE
:10046000E1F764E670E080E090E00E9410038EE225
:100470000E94D20061E080E00E94B50060E081E06F
:100480000E94B50061E082E00E94B50080E58CBD6D
:1004900081E08DBD6FE780E00E94890160E081E02E
:1004A0000E94890161E082E00E94890163E083E0AB
:1004B0000E94890160E084E00E9489016FE385E089
:1004C0000E9489016FE286E00E9489016EE787E061
:1004D0000E94890145E0BE016F5F7F4F8AE00E9464
:1004E000C60145E0BE016F5F7F4F80E10E94C601FB
:1004F000612F81E10E94890161E081E00E94B500E5
:1005000081EE0E94B50182EE0E94B50164EA76E0B8
:1005100080E090E00E94E3020F900F900F900F9008
:100520000F90DF91CF911F910895CF93DF93D82F34
:1005300066E087E00E941202C82FDD2329F041E027
:1005400066E087E00E94EF018C2FDF91CF91089544
:10055000DF92EF92FF920F931F93CF93DF937C0173
:10056000162F60E082E00E94B50081E60E948301C0
:10057000D82E112379F0E7011150012F10E00F5F01
:100580001F4F0E0D1F1D80E00E9483018993C0172D
:10059000D107C9F761E082E00E94B5008D2DDF919F
:1005A000CF911F910F91FF90EF90DF9008951092DF
:1005B000800088E08093810082E086BB10928500F5
:1005C0001092840008956A3071058105910520F428
:1005D0006AE070E080E090E0DC01CB01811520E86A
:1005E0009207A105B10520F08FEF9FE7A0E0B0E0F2
:1005F000BC01660F771F6850710970938900609382
:1006000088008AE080938100B19BFECF88E08093D0
:10061000810082E086BB10928500109284000895CC
:10062000611571058105910521F461E070E080E0BC
:1006300090E0DC01CB018F369105A105B10520F0DA
:100640008EE690E0A0E0B0E04AEF489F9001499F1D
:10065000300D1124C901019790938900809388007F
:100660008BE080938100B19BFECF88E08093810076
:1006700082E086BB10928500109284000895A1E26A
:100680001A2EAA1BBB1BFD010DC0AA1FBB1FEE1F0C
:10069000FF1FA217B307E407F50720F0A21BB30B57
:1006A000E40BF50B661F771F881F991F1A9469F7D3
:1006B00060957095809590959B01AC01BD01CF012F
:0606C0000895F894FFCF3D
:1006C6000D0A0034431010017265673A2000203D80
:0206D600200002
:00000001FF
