:100000000C9434000C9451000C9451000C94510049
:100010000C9451000C9451000C9451000C9451001C
:100020000C9451000C9451000C9451000C9451000C
:100030000C9451000C9451000C9453000C945100FA
:100040000C9451000C9451000C9451000C945100EC
:100050000C9451000C9451000C9451000C945100DC
:100060000C9451000C94510011241FBECFEFD8E026
:10007000DEBFCDBF11E0A0E0B1E0ECE8F5E002C0EA
:1000800005900D92A630B107D9F721E0A6E0B1E0C6
:1000900001C01D92A632B207E1F70E948A000C94BB
:1000A000C4020C9400001F920F920FB60F921124FD
:1000B0002F933F934F935F936F937F938F939F9370
:1000C000AF93BF93EF93FF9382E00E940701FF91EC
:1000D000EF91BF91AF919F918F917F916F915F91C0
:1000E0004F913F912F910F900FBE0F901F90189539
:1000F0000E9410010E945C028FEF0E94050180E2C5
:100100000E94B201E6E0F1E080E081938F5F8032EF
:10011000E1F708950E94780060E286E091E00E9495
:100120002802C6E2D1E0E6E0F1E08081805E8193C2
:10013000EC17FD07D1F787E00E943A0185FF09C05F
:1001400060E081EE0E94220160E286E091E00E9480
:10015000280264E670E080E090E00E94950264E688
:1001600070E080E090E00E94950264E670E080E03C
:1001700090E00E94950264E670E080E090E00E94CA
:10018000950264E670E080E090E00E94950264E6EB
:1001900070E080E090E00E94950264E670E080E00C
:1001A00090E00E94950264E670E080E090E00E949A
:1001B000950264E670E080E090E00E94950264E6BB
:1001C00070E080E090E00E949502ADCF662369F078
:1001D00045B121E030E0B90102C0660F771F8A9572
:1001E000E2F7CB01842B85B9089545B121E030E0D9
:1001F000B90102C0660F771F8A95E2F7CB0180959F
:10020000842385B9089584B9089587B9089521E0B4
:1002100030E002C0220F331F8A95E2F729B9089512
:100220001092C50087E68093C40088E18093C100E6
:1002300086E08093C20008958EBD0DB407FEFDCF09
:100240008EB50895CF93DF93C82FD62F60E082E05C
:100250000E94E60080E28C0F0E941C01C82F8D2FA7
:100260000E941C0161E082E00E94E6008C2FDF9179
:10027000CF910895CF93C82F60E082E00E94E600FE
:100280008C2F0E941C0180E00E941C01C82F61E09D
:1002900082E00E94E6008C2FCF910895CF93C82F63
:1002A00060E082E00E94E6008C2F0E941C01C82FB3
:1002B00061E082E00E94E6008C2FCF910895FF92CA
:1002C0000F931F93CF93DF93C82F8B01D42F60E040
:1002D00082E00E94E60080E28C0F0E941C01F82E52
:1002E000DD2359F0C0E0F801808191E0980F908300
:1002F0000E941C01CF5FDC13F6CF61E082E00E9418
:10030000E6008F2DDF91CF911F910F91FF900895FF
:10031000FF920F931F93CF93DF93182FEB01042FBE
:1003200060E082E00E94E600812F0E941C01F82E0E
:10033000002369F0015010E00F5F1F4F0C0F1D1FCD
:1003400080E00E941C018993C017D107C9F761E0C2
:1003500082E00E94E6008F2DDF91CF911F910F91D7
:10036000FF9008951F93CF93DF9300D000D01F928A
:10037000CDB7DEB7182F85E0E0E0F1E0DE011196A1
:1003800001900D928A95E1F764E670E080E090E0DC
:100390000E9495028EE20E94030161E080E00E94CB
:1003A000E60060E081E00E94E60061E082E00E94F9
:1003B000E60080E58CBD81E08DBD6EE780E00E94A7
:1003C000220160E081E00E94220161E082E00E945F
:1003D000220163E083E00E94220160E084E00E9449
:1003E00022016FE385E00E9422016FE286E00E9415
:1003F00022016EE787E00E94220145E0BE016F5FA7
:100400007F4F8AE00E94880145E0BE016F5F7F4F09
:1004100080E10E945F01612F81E10E94220161E081
:1004200081E00E94E60081EE0E944E0182EE0E9471
:100430004E0164EA76E080E090E00E9468020F904E
:100440000F900F900F900F90DF91CF911F91089513
:10045000DF92EF92FF920F931F93CF93DF937C0174
:10046000162F60E082E00E94E60080EA0E941C01F4
:10047000D82E112371F0E7011150012F10E00F5F0A
:100480001F4F0E0D1F1D89910E941C01C017D1071F
:10049000D1F761E082E00E94E60066E970E080E06A
:1004A00090E00E9468028D2DDF91CF911F910F91F6
:1004B000FF90EF90DF9008951092800088E0809385
:1004C000810082E086BB109285001092840008951E
:1004D0006A3071058105910520F46AE070E080E0E2
:1004E00090E0DC01CB01811520E89207A105B10560
:1004F00020F08FEF9FE7A0E0B0E0BC01660F771F10
:100500006850710970938900609388008AE0809335
:100510008100B19BFECF88E08093810082E086BBA2
:10052000109285001092840008956115710581056F
:10053000910521F461E070E080E090E0DC01CB0106
:100540008F369105A105B10520F08EE690E0A0E080
:10055000B0E04AEF489F9001499F300D1124C90136
:10056000019790938900809388008BE080938100AD
:10057000B19BFECF88E08093810082E086BB109221
:0C0580008500109284000895F894FFCFCD
:06058C00344310100100D1
:00000001FF
